{
  "_format": "hh-sol-artifact-1",
  "contractName": "Registry",
  "sourceName": "contracts/Registry.sol",
  "abi": [
    {
      "inputs": [
        {
          "internalType": "uint256",
          "name": "nftID",
          "type": "uint256"
        }
      ],
      "name": "getTokenAddress",
      "outputs": [
        {
          "internalType": "address",
          "name": "",
          "type": "address"
        }
      ],
      "stateMutability": "view",
      "type": "function"
    }
  ],
  "bytecode": "0x608060405234801561001057600080fd5b5061018d806100206000396000f3fe608060405234801561001057600080fd5b506004361061002b5760003560e01c806367ccdf3814610030575b600080fd5b61004a600480360381019061004591906100b1565b610060565b60405161005791906100e9565b60405180910390f35b600080600083815260200190815260200160002060009054906101000a900473ffffffffffffffffffffffffffffffffffffffff169050919050565b6000813590506100ab81610140565b92915050565b6000602082840312156100c357600080fd5b60006100d18482850161009c565b91505092915050565b6100e381610104565b82525050565b60006020820190506100fe60008301846100da565b92915050565b600061010f82610116565b9050919050565b600073ffffffffffffffffffffffffffffffffffffffff82169050919050565b6000819050919050565b61014981610136565b811461015457600080fd5b5056fea26469706673582212204a0085aba7273f6db18bc75847c610cb6c08e3bca05bfb3f7c1a76fbd2128e2864736f6c63430008000033",
  "linkReferences": {},
  "deployedLinkReferences": {}
}